{
  "_format": "hh-sol-artifact-1",
  "contractName": "StealthMarketExchange",
  "sourceName": "contracts/StealthMarketExchange.sol",
  "abi": [
    {
      "inputs": [],
      "stateMutability": "nonpayable",
      "type": "constructor"
    },
    {
      "inputs": [
        {
          "internalType": "address",
          "name": "target",
          "type": "address"
        }
      ],
      "name": "AddressEmptyCode",
      "type": "error"
    },
    {
      "inputs": [
        {
          "internalType": "address",
          "name": "account",
          "type": "address"
        }
      ],
      "name": "AddressInsufficientBalance",
      "type": "error"
    },
    {
      "inputs": [],
      "name": "FailedInnerCall",
      "type": "error"
    },
    {
      "inputs": [
        {
          "internalType": "address",
          "name": "token",
          "type": "address"
        }
      ],
      "name": "SafeERC20FailedOperation",
      "type": "error"
    },
    {
      "anonymous": false,
      "inputs": [
        {
          "indexed": true,
          "internalType": "address",
          "name": "cancelor",
          "type": "address"
        },
        {
          "indexed": true,
          "internalType": "address",
          "name": "sellToken",
          "type": "address"
        },
        {
          "indexed": true,
          "internalType": "address",
          "name": "buyToken",
          "type": "address"
        },
        {
          "indexed": false,
          "internalType": "uint256",
          "name": "sellAmount",
          "type": "uint256"
        },
        {
          "indexed": false,
          "internalType": "uint256",
          "name": "buyAmount",
          "type": "uint256"
        },
        {
          "indexed": false,
          "internalType": "uint256",
          "name": "swapId",
          "type": "uint256"
        }
      ],
      "name": "SwapCancelled",
      "type": "event"
    },
    {
      "anonymous": false,
      "inputs": [
        {
          "indexed": true,
          "internalType": "address",
          "name": "seller",
          "type": "address"
        },
        {
          "indexed": true,
          "internalType": "address",
          "name": "buyer",
          "type": "address"
        },
        {
          "indexed": false,
          "internalType": "address",
          "name": "sellToken",
          "type": "address"
        },
        {
          "indexed": false,
          "internalType": "address",
          "name": "buyToken",
          "type": "address"
        },
        {
          "indexed": false,
          "internalType": "uint256",
          "name": "sellAmount",
          "type": "uint256"
        },
        {
          "indexed": false,
          "internalType": "uint256",
          "name": "buyAmount",
          "type": "uint256"
        },
        {
          "indexed": false,
          "internalType": "uint256",
          "name": "swapId",
          "type": "uint256"
        }
      ],
      "name": "SwapCompleted",
      "type": "event"
    },
    {
      "anonymous": false,
      "inputs": [
        {
          "indexed": true,
          "internalType": "address",
          "name": "creator",
          "type": "address"
        },
        {
          "indexed": true,
          "internalType": "address",
          "name": "sellToken",
          "type": "address"
        },
        {
          "indexed": true,
          "internalType": "address",
          "name": "buyToken",
          "type": "address"
        },
        {
          "indexed": false,
          "internalType": "uint256",
          "name": "sellAmount",
          "type": "uint256"
        },
        {
          "indexed": false,
          "internalType": "uint256",
          "name": "buyAmount",
          "type": "uint256"
        },
        {
          "indexed": false,
          "internalType": "uint256",
          "name": "swapId",
          "type": "uint256"
        }
      ],
      "name": "SwapCreated",
      "type": "event"
    },
    {
      "inputs": [
        {
          "internalType": "uint256",
          "name": "swapNumber",
          "type": "uint256"
        }
      ],
      "name": "cancelSwap",
      "outputs": [],
      "stateMutability": "nonpayable",
      "type": "function"
    },
    {
      "inputs": [
        {
          "internalType": "uint256",
          "name": "swapNumber",
          "type": "uint256"
        }
      ],
      "name": "completeSwap",
      "outputs": [],
      "stateMutability": "payable",
      "type": "function"
    },
    {
      "inputs": [
        {
          "internalType": "address",
          "name": "sellToken",
          "type": "address"
        },
        {
          "internalType": "address",
          "name": "buyToken",
          "type": "address"
        },
        {
          "internalType": "uint256",
          "name": "sellAmount",
          "type": "uint256"
        },
        {
          "internalType": "uint256",
          "name": "buyAmount",
          "type": "uint256"
        }
      ],
      "name": "createSwap",
      "outputs": [],
      "stateMutability": "payable",
      "type": "function"
    },
    {
      "inputs": [
        {
          "internalType": "uint256",
          "name": "",
          "type": "uint256"
        }
      ],
      "name": "swaps",
      "outputs": [
        {
          "internalType": "address",
          "name": "creator",
          "type": "address"
        },
        {
          "internalType": "address",
          "name": "sellToken",
          "type": "address"
        },
        {
          "internalType": "address",
          "name": "buyToken",
          "type": "address"
        },
        {
          "internalType": "uint256",
          "name": "sellAmount",
          "type": "uint256"
        },
        {
          "internalType": "uint256",
          "name": "buyAmount",
          "type": "uint256"
        },
        {
          "internalType": "enum Status",
          "name": "status",
          "type": "uint8"
        }
      ],
      "stateMutability": "view",
      "type": "function"
    },
    {
      "stateMutability": "payable",
      "type": "receive"
    }
  ],
  "bytecode": "0x608060405234801561001057600080fd5b50611977806100206000396000f3fe6080604052600436106100435760003560e01c8063331ccd4c1461004f57806354d6a2b71461006b57806370de0b8c14610094578063f09c5829146100b05761004a565b3661004a57005b600080fd5b61006960048036038101906100649190611123565b6100f2565b005b34801561007757600080fd5b50610092600480360381019061008d9190611123565b610679565b005b6100ae60048036038101906100a991906111ae565b6109fd565b005b3480156100bc57600080fd5b506100d760048036038101906100d29190611123565b610cf0565b6040516100e9969594939291906112aa565b60405180910390f35b60006001600083815260200190815260200160002090503373ffffffffffffffffffffffffffffffffffffffff168160000160009054906101000a900473ffffffffffffffffffffffffffffffffffffffff1673ffffffffffffffffffffffffffffffffffffffff160361019b576040517f08c379a000000000000000000000000000000000000000000000000000000000815260040161019290611368565b60405180910390fd5b600160038111156101af576101ae611233565b5b8160050160009054906101000a900460ff1660038111156101d3576101d2611233565b5b14610213576040517f08c379a000000000000000000000000000000000000000000000000000000000815260040161020a906113d4565b60405180910390fd5b60028160050160006101000a81548160ff0219169083600381111561023b5761023a611233565b5b0217905550600073ffffffffffffffffffffffffffffffffffffffff168160010160009054906101000a900473ffffffffffffffffffffffffffffffffffffffff1673ffffffffffffffffffffffffffffffffffffffff160361034e5760003373ffffffffffffffffffffffffffffffffffffffff1682600301546040516102c290611425565b60006040518083038185875af1925050503d80600081146102ff576040519150601f19603f3d011682016040523d82523d6000602084013e610304565b606091505b5050905080610348576040517f08c379a000000000000000000000000000000000000000000000000000000000815260040161033f906114ac565b60405180910390fd5b506103a2565b6103a13382600301548360010160009054906101000a900473ffffffffffffffffffffffffffffffffffffffff1673ffffffffffffffffffffffffffffffffffffffff16610d999092919063ffffffff16565b5b600073ffffffffffffffffffffffffffffffffffffffff168160020160009054906101000a900473ffffffffffffffffffffffffffffffffffffffff1673ffffffffffffffffffffffffffffffffffffffff160361051a5780600401543414610440576040517f08c379a000000000000000000000000000000000000000000000000000000000815260040161043790611518565b60405180910390fd5b60008160000160009054906101000a900473ffffffffffffffffffffffffffffffffffffffff1673ffffffffffffffffffffffffffffffffffffffff16826004015460405161048e90611425565b60006040518083038185875af1925050503d80600081146104cb576040519150601f19603f3d011682016040523d82523d6000602084013e6104d0565b606091505b5050905080610514576040517f08c379a000000000000000000000000000000000000000000000000000000000815260040161050b906115aa565b60405180910390fd5b50610594565b610593338260000160009054906101000a900473ffffffffffffffffffffffffffffffffffffffff1683600401548460020160009054906101000a900473ffffffffffffffffffffffffffffffffffffffff1673ffffffffffffffffffffffffffffffffffffffff16610e18909392919063ffffffff16565b5b3373ffffffffffffffffffffffffffffffffffffffff168160000160009054906101000a900473ffffffffffffffffffffffffffffffffffffffff1673ffffffffffffffffffffffffffffffffffffffff167f04d4e1d32d244364a08f8924624c6a91e3c719617152bcb7d589a32bacdb6caa8360010160009054906101000a900473ffffffffffffffffffffffffffffffffffffffff168460020160009054906101000a900473ffffffffffffffffffffffffffffffffffffffff16856003015486600401548860405161066d9594939291906115ca565b60405180910390a35050565b60006001600083815260200190815260200160002090503373ffffffffffffffffffffffffffffffffffffffff168160000160009054906101000a900473ffffffffffffffffffffffffffffffffffffffff1673ffffffffffffffffffffffffffffffffffffffff1614610722576040517f08c379a000000000000000000000000000000000000000000000000000000000815260040161071990611669565b60405180910390fd5b6001600381111561073657610735611233565b5b8160050160009054906101000a900460ff16600381111561075a57610759611233565b5b1461079a576040517f08c379a0000000000000000000000000000000000000000000000000000000008152600401610791906113d4565b60405180910390fd5b60038160050160006101000a81548160ff021916908360038111156107c2576107c1611233565b5b0217905550600073ffffffffffffffffffffffffffffffffffffffff168160010160009054906101000a900473ffffffffffffffffffffffffffffffffffffffff1673ffffffffffffffffffffffffffffffffffffffff16036108d55760003373ffffffffffffffffffffffffffffffffffffffff16826003015460405161084990611425565b60006040518083038185875af1925050503d8060008114610886576040519150601f19603f3d011682016040523d82523d6000602084013e61088b565b606091505b50509050806108cf576040517f08c379a00000000000000000000000000000000000000000000000000000000081526004016108c6906116fb565b60405180910390fd5b50610929565b6109283382600301548360010160009054906101000a900473ffffffffffffffffffffffffffffffffffffffff1673ffffffffffffffffffffffffffffffffffffffff16610d999092919063ffffffff16565b5b8060020160009054906101000a900473ffffffffffffffffffffffffffffffffffffffff1673ffffffffffffffffffffffffffffffffffffffff168160010160009054906101000a900473ffffffffffffffffffffffffffffffffffffffff1673ffffffffffffffffffffffffffffffffffffffff163373ffffffffffffffffffffffffffffffffffffffff167fd0d5bb4efe73c3ecd4e2c2f89c239c127b8eacc263e083296938985ff106f6f784600301548560040154876040516109f19392919061171b565b60405180910390a45050565b600073ffffffffffffffffffffffffffffffffffffffff168473ffffffffffffffffffffffffffffffffffffffff1603610a7857813414610a73576040517f08c379a0000000000000000000000000000000000000000000000000000000008152600401610a6a906117c4565b60405180910390fd5b610aa6565b610aa53330848773ffffffffffffffffffffffffffffffffffffffff16610e18909392919063ffffffff16565b5b6040518060c001604052803373ffffffffffffffffffffffffffffffffffffffff1681526020018573ffffffffffffffffffffffffffffffffffffffff1681526020018473ffffffffffffffffffffffffffffffffffffffff16815260200183815260200182815260200160016003811115610b2557610b24611233565b5b815250600160008054815260200190815260200160002060008201518160000160006101000a81548173ffffffffffffffffffffffffffffffffffffffff021916908373ffffffffffffffffffffffffffffffffffffffff16021790555060208201518160010160006101000a81548173ffffffffffffffffffffffffffffffffffffffff021916908373ffffffffffffffffffffffffffffffffffffffff16021790555060408201518160020160006101000a81548173ffffffffffffffffffffffffffffffffffffffff021916908373ffffffffffffffffffffffffffffffffffffffff160217905550606082015181600301556080820151816004015560a08201518160050160006101000a81548160ff02191690836003811115610c5057610c4f611233565b5b02179055509050508273ffffffffffffffffffffffffffffffffffffffff168473ffffffffffffffffffffffffffffffffffffffff163373ffffffffffffffffffffffffffffffffffffffff167f027c315db306ff5b555fe33bcda4b7333e60a79bd613df49f5c37f572171a0538585600054604051610cd29392919061171b565b60405180910390a46001600080828254019250508190555050505050565b60016020528060005260406000206000915090508060000160009054906101000a900473ffffffffffffffffffffffffffffffffffffffff16908060010160009054906101000a900473ffffffffffffffffffffffffffffffffffffffff16908060020160009054906101000a900473ffffffffffffffffffffffffffffffffffffffff16908060030154908060040154908060050160009054906101000a900460ff16905086565b610e13838473ffffffffffffffffffffffffffffffffffffffff1663a9059cbb8585604051602401610dcc9291906117e4565b604051602081830303815290604052915060e01b6020820180517bffffffffffffffffffffffffffffffffffffffffffffffffffffffff8381831617835250505050610e9a565b505050565b610e94848573ffffffffffffffffffffffffffffffffffffffff166323b872dd868686604051602401610e4d9392919061180d565b604051602081830303815290604052915060e01b6020820180517bffffffffffffffffffffffffffffffffffffffffffffffffffffffff8381831617835250505050610e9a565b50505050565b6000610ec5828473ffffffffffffffffffffffffffffffffffffffff16610f3190919063ffffffff16565b90506000815114158015610eea575080806020019051810190610ee8919061187c565b155b15610f2c57826040517f5274afe7000000000000000000000000000000000000000000000000000000008152600401610f2391906118a9565b60405180910390fd5b505050565b6060610f3f83836000610f47565b905092915050565b606081471015610f8e57306040517fcd786059000000000000000000000000000000000000000000000000000000008152600401610f8591906118a9565b60405180910390fd5b6000808573ffffffffffffffffffffffffffffffffffffffff168486604051610fb7919061192a565b60006040518083038185875af1925050503d8060008114610ff4576040519150601f19603f3d011682016040523d82523d6000602084013e610ff9565b606091505b5091509150611009868383611014565b925050509392505050565b60608261102957611024826110a3565b61109b565b60008251148015611051575060008473ffffffffffffffffffffffffffffffffffffffff163b145b1561109357836040517f9996b31500000000000000000000000000000000000000000000000000000000815260040161108a91906118a9565b60405180910390fd5b81905061109c565b5b9392505050565b6000815111156110b65780518082602001fd5b6040517f1425ea4200000000000000000000000000000000000000000000000000000000815260040160405180910390fd5b600080fd5b6000819050919050565b611100816110ed565b811461110b57600080fd5b50565b60008135905061111d816110f7565b92915050565b600060208284031215611139576111386110e8565b5b60006111478482850161110e565b91505092915050565b600073ffffffffffffffffffffffffffffffffffffffff82169050919050565b600061117b82611150565b9050919050565b61118b81611170565b811461119657600080fd5b50565b6000813590506111a881611182565b92915050565b600080600080608085870312156111c8576111c76110e8565b5b60006111d687828801611199565b94505060206111e787828801611199565b93505060406111f88782880161110e565b92505060606112098782880161110e565b91505092959194509250565b61121e81611170565b82525050565b61122d816110ed565b82525050565b7f4e487b7100000000000000000000000000000000000000000000000000000000600052602160045260246000fd5b6004811061127357611272611233565b5b50565b600081905061128482611262565b919050565b600061129482611276565b9050919050565b6112a481611289565b82525050565b600060c0820190506112bf6000830189611215565b6112cc6020830188611215565b6112d96040830187611215565b6112e66060830186611224565b6112f36080830185611224565b61130060a083018461129b565b979650505050505050565b600082825260208201905092915050565b7f45786368616e67653a20796f75206172652063726561746f7200000000000000600082015250565b600061135260198361130b565b915061135d8261131c565b602082019050919050565b6000602082019050818103600083015261138181611345565b9050919050565b7f45786368616e67653a2073686f756c6420626520726571756573746564000000600082015250565b60006113be601d8361130b565b91506113c982611388565b602082019050919050565b600060208201905081810360008301526113ed816113b1565b9050919050565b600081905092915050565b50565b600061140f6000836113f4565b915061141a826113ff565b600082019050919050565b600061143082611402565b9150819050919050565b7f45786368616e67653a206661696c656420746f207472616e736665722073656c60008201527f6c20455448000000000000000000000000000000000000000000000000000000602082015250565b600061149660258361130b565b91506114a18261143a565b604082019050919050565b600060208201905081810360008301526114c581611489565b9050919050565b7f45786368616e67653a20627579204554482076616c7565206d69736d61746368600082015250565b600061150260208361130b565b915061150d826114cc565b602082019050919050565b60006020820190508181036000830152611531816114f5565b9050919050565b7f45786368616e67653a206661696c656420746f207472616e736665722062757960008201527f2045544800000000000000000000000000000000000000000000000000000000602082015250565b600061159460248361130b565b915061159f82611538565b604082019050919050565b600060208201905081810360008301526115c381611587565b9050919050565b600060a0820190506115df6000830188611215565b6115ec6020830187611215565b6115f96040830186611224565b6116066060830185611224565b6116136080830184611224565b9695505050505050565b7f45786368616e67653a206e6f742063726561746f720000000000000000000000600082015250565b600061165360158361130b565b915061165e8261161d565b602082019050919050565b6000602082019050818103600083015261168281611646565b9050919050565b7f45786368616e67653a206661696c656420746f207265766572742073656c6c2060008201527f4554480000000000000000000000000000000000000000000000000000000000602082015250565b60006116e560238361130b565b91506116f082611689565b604082019050919050565b60006020820190508181036000830152611714816116d8565b9050919050565b60006060820190506117306000830186611224565b61173d6020830185611224565b61174a6040830184611224565b949350505050565b7f45786368616e67653a2073656c6c204554482076616c7565206d69736d61746360008201527f6800000000000000000000000000000000000000000000000000000000000000602082015250565b60006117ae60218361130b565b91506117b982611752565b604082019050919050565b600060208201905081810360008301526117dd816117a1565b9050919050565b60006040820190506117f96000830185611215565b6118066020830184611224565b9392505050565b60006060820190506118226000830186611215565b61182f6020830185611215565b61183c6040830184611224565b949350505050565b60008115159050919050565b61185981611844565b811461186457600080fd5b50565b60008151905061187681611850565b92915050565b600060208284031215611892576118916110e8565b5b60006118a084828501611867565b91505092915050565b60006020820190506118be6000830184611215565b92915050565b600081519050919050565b60005b838110156118ed5780820151818401526020810190506118d2565b60008484015250505050565b6000611904826118c4565b61190e81856113f4565b935061191e8185602086016118cf565b80840191505092915050565b600061193682846118f9565b91508190509291505056fea2646970667358221220a07af420524acefb45d69da6af552d10cfed4e82f45667fb43980c4542f9bef264736f6c63430008140033",
  "linkReferences": {},
  "deployedLinkReferences": {}
}